{
  "contractName": "InitializerMinter",
  "abi": [
    {
      "inputs": [
        {
          "internalType": "address",
          "name": "_owner",
          "type": "address"
        },
        {
          "internalType": "address",
          "name": "_recipient",
          "type": "address"
        }
      ],
      "stateMutability": "nonpayable",
      "type": "constructor"
    },
    {
      "inputs": [],
      "name": "initializers",
      "outputs": [
        {
          "internalType": "contract Initializers",
          "name": "",
          "type": "address"
        }
      ],
      "stateMutability": "view",
      "type": "function",
      "constant": true
    },
    {
      "inputs": [],
      "name": "owner",
      "outputs": [
        {
          "internalType": "address",
          "name": "",
          "type": "address"
        }
      ],
      "stateMutability": "view",
      "type": "function",
      "constant": true
    },
    {
      "inputs": [],
      "name": "recipient",
      "outputs": [
        {
          "internalType": "address",
          "name": "",
          "type": "address"
        }
      ],
      "stateMutability": "view",
      "type": "function",
      "constant": true
    },
    {
      "inputs": [
        {
          "internalType": "uint8",
          "name": "maxMint",
          "type": "uint8"
        }
      ],
      "name": "mint",
      "outputs": [],
      "stateMutability": "nonpayable",
      "type": "function"
    },
    {
      "inputs": [],
      "name": "recover",
      "outputs": [],
      "stateMutability": "nonpayable",
      "type": "function"
    }
  ],
  "bytecode": "0x6080604052600280546001600160a01b03191673881d9c2f229323aad28a9c9045111e30e1f1eb2517905534801561003657600080fd5b50604051610432380380610432833981016040819052610055916100a2565b600080546001600160a01b039384166001600160a01b031991821617909155600180549290931691161790556100d5565b80516001600160a01b038116811461009d57600080fd5b919050565b600080604083850312156100b557600080fd5b6100be83610086565b91506100cc60208401610086565b90509250929050565b61034e806100e46000396000f3fe608060405234801561001057600080fd5b50600436106100575760003560e01c8063348542d01461005c57806366d003ac1461008b5780636ecd23061461009e5780638da5cb5b146100b3578063ce746024146100c6575b600080fd5b60025461006f906001600160a01b031681565b6040516001600160a01b03909116815260200160405180910390f35b60015461006f906001600160a01b031681565b6100b16100ac3660046102f5565b6100ce565b005b60005461006f906001600160a01b031681565b6100b161023b565b6002546040805163ae0cf67360e01b815290516000926001600160a01b03169163ae0cf673916004808301926020929190829003018186803b15801561011357600080fd5b505afa158015610127573d6000803e3d6000fd5b505050506040513d601f19601f8201168201806040525081019061014b91906102ca565b61ffff1690508160ff16811115610162575060ff81165b80156101d65760025460015460405163acee9c4d60e01b81526001600160a01b03918216600482015291169063acee9c4d90602401600060405180830381600087803b1580156101b157600080fd5b505af11580156101c5573d6000803e3d6000fd5b505060001990920191506101629050565b60025460005460405163f2fde38b60e01b81526001600160a01b03918216600482015291169063f2fde38b90602401600060405180830381600087803b15801561021f57600080fd5b505af1158015610233573d6000803e3d6000fd5b505050505050565b6000546001600160a01b031633148061025e57506001546001600160a01b031633145b61026757600080fd5b60025460005460405163f2fde38b60e01b81526001600160a01b03918216600482015291169063f2fde38b90602401600060405180830381600087803b1580156102b057600080fd5b505af11580156102c4573d6000803e3d6000fd5b50505050565b6000602082840312156102dc57600080fd5b815161ffff811681146102ee57600080fd5b9392505050565b60006020828403121561030757600080fd5b813560ff811681146102ee57600080fdfea2646970667358221220e492b7aea50e207ebb45eba9a24676f4f8d8d3647a7da4e2e3afdda5de2fed0964736f6c63430008060033",
  "immutableReferences": {},
  "source": "pragma solidity ^0.8.6;\r\n\r\nimport \"@openzeppelin/contracts/token/ERC721/IERC721.sol\";\r\nimport \"@openzeppelin/contracts/token/ERC721/IERC721Receiver.sol\";\r\nimport \"./Initializers.sol\";\r\n\r\ncontract InitializerMinter {\r\n\r\n    address public owner;\r\n    address public recipient;\r\n\r\n    Initializers public initializers = Initializers(0x881D9c2F229323aad28a9c9045111e30e1F1eB25);\r\n\r\n    constructor(address _owner, address _recipient) {\r\n        owner = _owner;\r\n        recipient = _recipient;\r\n    }\r\n\r\n    function mint(uint8 maxMint) public {\r\n        uint remaining = initializers.reserveSupplyAvailable();\r\n\r\n        if(remaining > maxMint){\r\n            remaining = maxMint;\r\n        }\r\n\r\n        while(remaining > 0){\r\n            initializers.reserveMint(recipient);\r\n            unchecked{\r\n                remaining--;\r\n            }\r\n        }\r\n        initializers.transferOwnership(owner);\r\n    }\r\n\r\n    function recover() public {\r\n        require(msg.sender == owner || msg.sender == recipient);\r\n        initializers.transferOwnership(owner);\r\n    }\r\n\r\n}\r\n",
  "sourcePath": "C:\\Users\\Kris\\Documents\\git-projects\\blank-humanity\\blank-humanity\\contracts\\InitializerMinter.sol",
  "compiler": {
    "name": "solc",
    "version": "0.8.6+commit.11564f7e.Emscripten.clang"
  },
  "schemaVersion": "3.4.4",
  "updatedAt": "2022-01-18T04:48:25.566Z",
  "networkType": "ethereum",
  "devdoc": {
    "kind": "dev",
    "methods": {},
    "version": 1
  },
  "userdoc": {
    "kind": "user",
    "methods": {},
    "version": 1
  }
}