{
  "contractName": "Initializers",
  "abi": [
    {
      "inputs": [],
      "stateMutability": "nonpayable",
      "type": "constructor"
    },
    {
      "anonymous": false,
      "inputs": [
        {
          "indexed": true,
          "internalType": "address",
          "name": "owner",
          "type": "address"
        },
        {
          "indexed": true,
          "internalType": "address",
          "name": "approved",
          "type": "address"
        },
        {
          "indexed": true,
          "internalType": "uint256",
          "name": "tokenId",
          "type": "uint256"
        }
      ],
      "name": "Approval",
      "type": "event"
    },
    {
      "anonymous": false,
      "inputs": [
        {
          "indexed": true,
          "internalType": "address",
          "name": "owner",
          "type": "address"
        },
        {
          "indexed": true,
          "internalType": "address",
          "name": "operator",
          "type": "address"
        },
        {
          "indexed": false,
          "internalType": "bool",
          "name": "approved",
          "type": "bool"
        }
      ],
      "name": "ApprovalForAll",
      "type": "event"
    },
    {
      "anonymous": false,
      "inputs": [
        {
          "indexed": true,
          "internalType": "address",
          "name": "previousOwner",
          "type": "address"
        },
        {
          "indexed": true,
          "internalType": "address",
          "name": "newOwner",
          "type": "address"
        }
      ],
      "name": "OwnershipTransferred",
      "type": "event"
    },
    {
      "anonymous": false,
      "inputs": [
        {
          "indexed": true,
          "internalType": "address",
          "name": "from",
          "type": "address"
        },
        {
          "indexed": true,
          "internalType": "address",
          "name": "to",
          "type": "address"
        },
        {
          "indexed": true,
          "internalType": "uint256",
          "name": "tokenId",
          "type": "uint256"
        }
      ],
      "name": "Transfer",
      "type": "event"
    },
    {
      "inputs": [],
      "name": "PROVENANCE",
      "outputs": [
        {
          "internalType": "string",
          "name": "",
          "type": "string"
        }
      ],
      "stateMutability": "view",
      "type": "function"
    },
    {
      "inputs": [
        {
          "internalType": "address",
          "name": "to",
          "type": "address"
        },
        {
          "internalType": "uint256",
          "name": "tokenId",
          "type": "uint256"
        }
      ],
      "name": "approve",
      "outputs": [],
      "stateMutability": "nonpayable",
      "type": "function"
    },
    {
      "inputs": [
        {
          "internalType": "address",
          "name": "owner",
          "type": "address"
        }
      ],
      "name": "balanceOf",
      "outputs": [
        {
          "internalType": "uint256",
          "name": "",
          "type": "uint256"
        }
      ],
      "stateMutability": "view",
      "type": "function"
    },
    {
      "inputs": [
        {
          "internalType": "address",
          "name": "",
          "type": "address"
        }
      ],
      "name": "freelistClaimed",
      "outputs": [
        {
          "internalType": "bool",
          "name": "",
          "type": "bool"
        }
      ],
      "stateMutability": "view",
      "type": "function"
    },
    {
      "inputs": [],
      "name": "freelistMerkleRoot",
      "outputs": [
        {
          "internalType": "bytes32",
          "name": "",
          "type": "bytes32"
        }
      ],
      "stateMutability": "view",
      "type": "function"
    },
    {
      "inputs": [
        {
          "internalType": "uint256",
          "name": "tokenId",
          "type": "uint256"
        }
      ],
      "name": "getApproved",
      "outputs": [
        {
          "internalType": "address",
          "name": "",
          "type": "address"
        }
      ],
      "stateMutability": "view",
      "type": "function"
    },
    {
      "inputs": [
        {
          "internalType": "address",
          "name": "owner",
          "type": "address"
        },
        {
          "internalType": "address",
          "name": "operator",
          "type": "address"
        }
      ],
      "name": "isApprovedForAll",
      "outputs": [
        {
          "internalType": "bool",
          "name": "",
          "type": "bool"
        }
      ],
      "stateMutability": "view",
      "type": "function"
    },
    {
      "inputs": [],
      "name": "name",
      "outputs": [
        {
          "internalType": "string",
          "name": "",
          "type": "string"
        }
      ],
      "stateMutability": "view",
      "type": "function"
    },
    {
      "inputs": [],
      "name": "openToPublic",
      "outputs": [
        {
          "internalType": "bool",
          "name": "",
          "type": "bool"
        }
      ],
      "stateMutability": "view",
      "type": "function"
    },
    {
      "inputs": [],
      "name": "owner",
      "outputs": [
        {
          "internalType": "address",
          "name": "",
          "type": "address"
        }
      ],
      "stateMutability": "view",
      "type": "function"
    },
    {
      "inputs": [
        {
          "internalType": "uint256",
          "name": "tokenId",
          "type": "uint256"
        }
      ],
      "name": "ownerOf",
      "outputs": [
        {
          "internalType": "address",
          "name": "",
          "type": "address"
        }
      ],
      "stateMutability": "view",
      "type": "function"
    },
    {
      "inputs": [],
      "name": "price",
      "outputs": [
        {
          "internalType": "uint256",
          "name": "",
          "type": "uint256"
        }
      ],
      "stateMutability": "view",
      "type": "function"
    },
    {
      "inputs": [],
      "name": "publicSupplyAvailable",
      "outputs": [
        {
          "internalType": "uint16",
          "name": "",
          "type": "uint16"
        }
      ],
      "stateMutability": "view",
      "type": "function"
    },
    {
      "inputs": [],
      "name": "renounceOwnership",
      "outputs": [],
      "stateMutability": "nonpayable",
      "type": "function"
    },
    {
      "inputs": [],
      "name": "reserveSupplyAvailable",
      "outputs": [
        {
          "internalType": "uint16",
          "name": "",
          "type": "uint16"
        }
      ],
      "stateMutability": "view",
      "type": "function"
    },
    {
      "inputs": [
        {
          "internalType": "address",
          "name": "from",
          "type": "address"
        },
        {
          "internalType": "address",
          "name": "to",
          "type": "address"
        },
        {
          "internalType": "uint256",
          "name": "tokenId",
          "type": "uint256"
        }
      ],
      "name": "safeTransferFrom",
      "outputs": [],
      "stateMutability": "nonpayable",
      "type": "function"
    },
    {
      "inputs": [
        {
          "internalType": "address",
          "name": "from",
          "type": "address"
        },
        {
          "internalType": "address",
          "name": "to",
          "type": "address"
        },
        {
          "internalType": "uint256",
          "name": "tokenId",
          "type": "uint256"
        },
        {
          "internalType": "bytes",
          "name": "_data",
          "type": "bytes"
        }
      ],
      "name": "safeTransferFrom",
      "outputs": [],
      "stateMutability": "nonpayable",
      "type": "function"
    },
    {
      "inputs": [],
      "name": "saleIsActive",
      "outputs": [
        {
          "internalType": "bool",
          "name": "",
          "type": "bool"
        }
      ],
      "stateMutability": "view",
      "type": "function"
    },
    {
      "inputs": [
        {
          "internalType": "address",
          "name": "operator",
          "type": "address"
        },
        {
          "internalType": "bool",
          "name": "approved",
          "type": "bool"
        }
      ],
      "name": "setApprovalForAll",
      "outputs": [],
      "stateMutability": "nonpayable",
      "type": "function"
    },
    {
      "inputs": [
        {
          "internalType": "bytes4",
          "name": "interfaceId",
          "type": "bytes4"
        }
      ],
      "name": "supportsInterface",
      "outputs": [
        {
          "internalType": "bool",
          "name": "",
          "type": "bool"
        }
      ],
      "stateMutability": "view",
      "type": "function"
    },
    {
      "inputs": [],
      "name": "symbol",
      "outputs": [
        {
          "internalType": "string",
          "name": "",
          "type": "string"
        }
      ],
      "stateMutability": "view",
      "type": "function"
    },
    {
      "inputs": [
        {
          "internalType": "uint256",
          "name": "tokenId",
          "type": "uint256"
        }
      ],
      "name": "tokenURI",
      "outputs": [
        {
          "internalType": "string",
          "name": "",
          "type": "string"
        }
      ],
      "stateMutability": "view",
      "type": "function"
    },
    {
      "inputs": [
        {
          "internalType": "address",
          "name": "from",
          "type": "address"
        },
        {
          "internalType": "address",
          "name": "to",
          "type": "address"
        },
        {
          "internalType": "uint256",
          "name": "tokenId",
          "type": "uint256"
        }
      ],
      "name": "transferFrom",
      "outputs": [],
      "stateMutability": "nonpayable",
      "type": "function"
    },
    {
      "inputs": [
        {
          "internalType": "address",
          "name": "newOwner",
          "type": "address"
        }
      ],
      "name": "transferOwnership",
      "outputs": [],
      "stateMutability": "nonpayable",
      "type": "function"
    },
    {
      "inputs": [],
      "name": "whitelistMerkleRoot",
      "outputs": [
        {
          "internalType": "bytes32",
          "name": "",
          "type": "bytes32"
        }
      ],
      "stateMutability": "view",
      "type": "function"
    },
    {
      "inputs": [
        {
          "internalType": "address",
          "name": "",
          "type": "address"
        }
      ],
      "name": "whitelistPhaseClaimed",
      "outputs": [
        {
          "internalType": "uint8",
          "name": "",
          "type": "uint8"
        }
      ],
      "stateMutability": "view",
      "type": "function"
    },
    {
      "inputs": [
        {
          "internalType": "address",
          "name": "to",
          "type": "address"
        }
      ],
      "name": "reserveMint",
      "outputs": [],
      "stateMutability": "nonpayable",
      "type": "function"
    },
    {
      "inputs": [
        {
          "internalType": "bytes32[]",
          "name": "merkleProof",
          "type": "bytes32[]"
        }
      ],
      "name": "whitelistMint",
      "outputs": [],
      "stateMutability": "payable",
      "type": "function"
    },
    {
      "inputs": [
        {
          "internalType": "bytes32[]",
          "name": "merkleProof",
          "type": "bytes32[]"
        }
      ],
      "name": "freeMint",
      "outputs": [],
      "stateMutability": "nonpayable",
      "type": "function"
    },
    {
      "inputs": [],
      "name": "publicMint",
      "outputs": [],
      "stateMutability": "payable",
      "type": "function"
    },
    {
      "inputs": [],
      "name": "totalSupply",
      "outputs": [
        {
          "internalType": "uint256",
          "name": "",
          "type": "uint256"
        }
      ],
      "stateMutability": "view",
      "type": "function"
    },
    {
      "inputs": [],
      "name": "withdraw",
      "outputs": [],
      "stateMutability": "nonpayable",
      "type": "function"
    },
    {
      "inputs": [
        {
          "internalType": "string",
          "name": "provenance",
          "type": "string"
        }
      ],
      "name": "setProvenance",
      "outputs": [],
      "stateMutability": "nonpayable",
      "type": "function"
    },
    {
      "inputs": [
        {
          "internalType": "bool",
          "name": "saleState",
          "type": "bool"
        }
      ],
      "name": "setSaleState",
      "outputs": [],
      "stateMutability": "nonpayable",
      "type": "function"
    },
    {
      "inputs": [
        {
          "internalType": "uint256",
          "name": "_price",
          "type": "uint256"
        }
      ],
      "name": "setPrice",
      "outputs": [],
      "stateMutability": "nonpayable",
      "type": "function"
    },
    {
      "inputs": [
        {
          "internalType": "bool",
          "name": "isOpen",
          "type": "bool"
        }
      ],
      "name": "setOpenToPublic",
      "outputs": [],
      "stateMutability": "nonpayable",
      "type": "function"
    },
    {
      "inputs": [
        {
          "internalType": "bytes32",
          "name": "merkleRoot",
          "type": "bytes32"
        }
      ],
      "name": "setFreelistMerkleRoot",
      "outputs": [],
      "stateMutability": "nonpayable",
      "type": "function"
    },
    {
      "inputs": [
        {
          "internalType": "bytes32",
          "name": "merkleRoot",
          "type": "bytes32"
        }
      ],
      "name": "setWhitelistMerkleRoot",
      "outputs": [],
      "stateMutability": "nonpayable",
      "type": "function"
    },
    {
      "inputs": [
        {
          "internalType": "uint8",
          "name": "_whitelistPhase",
          "type": "uint8"
        }
      ],
      "name": "setWhitelistPhase",
      "outputs": [],
      "stateMutability": "nonpayable",
      "type": "function"
    },
    {
      "inputs": [
        {
          "internalType": "string",
          "name": "baseURI",
          "type": "string"
        }
      ],
      "name": "setBaseURI",
      "outputs": [],
      "stateMutability": "nonpayable",
      "type": "function"
    }
  ],
  "bytecode": "0x60a06040819052600060808190526200001b916007916200015b565b50600880546001600160401b031916660100650364000017905566c3663566a580006009556040805160208101918290526000908190526200006091600a916200015b565b50600c805460ff191660011790553480156200007b57600080fd5b50604080518082018252600c81526b496e697469616c697a65727360a01b6020808301918252835180850190945260048452631253925560e21b908401528151919291620000cc916000916200015b565b508051620000e29060019060208401906200015b565b505050620000ff620000f96200010560201b60201c565b62000109565b6200023e565b3390565b600680546001600160a01b038381166001600160a01b0319831681179093556040519116919082907f8be0079c531659141344cd1fd0a4f28419497f9722a3daafe3b4186f6b6457e090600090a35050565b828054620001699062000201565b90600052602060002090601f0160209004810192826200018d5760008555620001d8565b82601f10620001a857805160ff1916838001178555620001d8565b82800160010185558215620001d8579182015b82811115620001d8578251825591602001919060010190620001bb565b50620001e6929150620001ea565b5090565b5b80821115620001e65760008155600101620001eb565b600181811c908216806200021657607f821691505b602082108114156200023857634e487b7160e01b600052602260045260246000fd5b50919050565b612579806200024e6000396000f3fe60806040526004361061023b5760003560e01c80638ad1efa01161012e578063b88d4fde116100ab578063e985e9c51161006f578063e985e9c5146106b7578063eb8d244414610700578063f2fde38b14610721578063fe5e27a014610741578063ffe630b51461075757600080fd5b8063b88d4fde14610617578063bd32fb6614610637578063bdac8c9814610657578063c4e3709514610677578063c87b56dd1461069757600080fd5b8063a22cb465116100f2578063a22cb4651461057e578063a43baa3d1461059e578063aa98e0c6146105be578063acee9c4d146105d4578063ae0cf673146105f457600080fd5b80638ad1efa0146104e15780638da5cb5b1461051557806391b7f5ed1461053357806395d89b4114610553578063a035b1fe1461056857600080fd5b8063372f657c116101bc5780636373a6b1116101805780636373a6b1146104475780636d68b82c1461045c57806370a082311461048c578063715018a6146104ac57806388d15d50146104c157600080fd5b8063372f657c146103bf5780633ccfd60b146103d257806342842e0e146103e757806355f804b3146104075780636352211e1461042757600080fd5b806318160ddd1161020357806318160ddd146103335780631831ccf21461035657806323b872dd1461037757806326092b831461039757806334be402b1461039f57600080fd5b806301ffc9a71461024057806306fdde0314610275578063081812fc14610297578063095ea7b3146102cf5780630d37d655146102f1575b600080fd5b34801561024c57600080fd5b5061026061025b366004612150565b610777565b60405190151581526020015b60405180910390f35b34801561028157600080fd5b5061028a6107c9565b60405161026c91906122a5565b3480156102a357600080fd5b506102b76102b2366004612137565b61085b565b6040516001600160a01b03909116815260200161026c565b3480156102db57600080fd5b506102ef6102ea36600461207d565b6108f5565b005b3480156102fd57600080fd5b5061032161030c366004611eed565b600d6020526000908152604090205460ff1681565b60405160ff909116815260200161026c565b34801561033f57600080fd5b50610348610a0b565b60405190815260200161026c565b34801561036257600080fd5b5060085461026090600160381b900460ff1681565b34801561038357600080fd5b506102ef610392366004611f3b565b610a32565b6102ef610a63565b3480156103ab57600080fd5b506102ef6103ba366004612137565b610b6a565b6102ef6103cd3660046120a7565b610b99565b3480156103de57600080fd5b506102ef610d91565b3480156103f357600080fd5b506102ef610402366004611f3b565b610dee565b34801561041357600080fd5b506102ef61042236600461218a565b610e09565b34801561043357600080fd5b506102b7610442366004612137565b610e3f565b34801561045357600080fd5b5061028a610eb6565b34801561046857600080fd5b50610260610477366004611eed565b600f6020526000908152604090205460ff1681565b34801561049857600080fd5b506103486104a7366004611eed565b610f44565b3480156104b857600080fd5b506102ef610fcb565b3480156104cd57600080fd5b506102ef6104dc3660046120a7565b611001565b3480156104ed57600080fd5b506008546105029062010000900461ffff1681565b60405161ffff909116815260200161026c565b34801561052157600080fd5b506006546001600160a01b03166102b7565b34801561053f57600080fd5b506102ef61054e366004612137565b61115b565b34801561055f57600080fd5b5061028a61118a565b34801561057457600080fd5b5061034860095481565b34801561058a57600080fd5b506102ef610599366004612053565b611199565b3480156105aa57600080fd5b506102ef6105b936600461211c565b6111a4565b3480156105ca57600080fd5b50610348600b5481565b3480156105e057600080fd5b506102ef6105ef366004611eed565b6111f0565b34801561060057600080fd5b5060085461050290640100000000900461ffff1681565b34801561062357600080fd5b506102ef610632366004611f77565b611289565b34801561064357600080fd5b506102ef610652366004612137565b6112c1565b34801561066357600080fd5b506102ef6106723660046121ea565b6112f0565b34801561068357600080fd5b506102ef61069236600461211c565b611330565b3480156106a357600080fd5b5061028a6106b2366004612137565b61137b565b3480156106c357600080fd5b506102606106d2366004611f08565b6001600160a01b03918216600090815260056020908152604080832093909416825291909152205460ff1690565b34801561070c57600080fd5b5060085461026090600160301b900460ff1681565b34801561072d57600080fd5b506102ef61073c366004611eed565b611456565b34801561074d57600080fd5b50610348600e5481565b34801561076357600080fd5b506102ef61077236600461218a565b6114f1565b60006001600160e01b031982166380ac58cd60e01b14806107a857506001600160e01b03198216635b5e139f60e01b145b806107c357506301ffc9a760e01b6001600160e01b03198316145b92915050565b6060600080546107d89061246b565b80601f01602080910402602001604051908101604052809291908181526020018280546108049061246b565b80156108515780601f1061082657610100808354040283529160200191610851565b820191906000526020600020905b81548152906001019060200180831161083457829003601f168201915b5050505050905090565b6000818152600260205260408120546001600160a01b03166108d95760405162461bcd60e51b815260206004820152602c60248201527f4552433732313a20617070726f76656420717565727920666f72206e6f6e657860448201526b34b9ba32b73a103a37b5b2b760a11b60648201526084015b60405180910390fd5b506000908152600460205260409020546001600160a01b031690565b600061090082610e3f565b9050806001600160a01b0316836001600160a01b0316141561096e5760405162461bcd60e51b815260206004820152602160248201527f4552433732313a20617070726f76616c20746f2063757272656e74206f776e656044820152603960f91b60648201526084016108d0565b336001600160a01b038216148061098a575061098a81336106d2565b6109fc5760405162461bcd60e51b815260206004820152603860248201527f4552433732313a20617070726f76652063616c6c6572206973206e6f74206f7760448201527f6e6572206e6f7220617070726f76656420666f7220616c6c000000000000000060648201526084016108d0565b610a068383611527565b505050565b600854600090610a299061ffff6401000000008204811691166123bc565b61ffff16905090565b610a3c3382611595565b610a585760405162461bcd60e51b81526004016108d09061236b565b610a0683838361168c565b600954341015610aae5760405162461bcd60e51b8152602060048201526016602482015275125b9d985b1a59081c185e5b595b9d08185b5bdd5b9d60521b60448201526064016108d0565b600854600160301b900460ff16610ad75760405162461bcd60e51b81526004016108d09061230a565b600854600160381b900460ff16610b255760405162461bcd60e51b8152602060048201526012602482015271141d589b1a58c81cd85b194818db1bdcd95960721b60448201526064016108d0565b610b2e3361182c565b6001600860028282829054906101000a900461ffff16610b4e9190612405565b92506101000a81548161ffff021916908361ffff160217905550565b6006546001600160a01b03163314610b945760405162461bcd60e51b81526004016108d090612336565b600e55565b600954341015610be45760405162461bcd60e51b8152602060048201526016602482015275125b9d985b1a59081c185e5b595b9d08185b5bdd5b9d60521b60448201526064016108d0565b600854600160301b900460ff16610c0d5760405162461bcd60e51b81526004016108d09061230a565b600b546040516bffffffffffffffffffffffff193360601b16602082015283908390600090603401604051602081830303815290604052805190602001209050610c8d8383808060200260200160405190810160405280939291908181526020018383602002808284376000920191909152508892508591506118699050565b610cc95760405162461bcd60e51b815260206004820152600d60248201526c24b73b30b634b210383937b7b360991b60448201526064016108d0565b600c54336000908152600d602052604090205460ff918216911610610d225760405162461bcd60e51b815260206004820152600f60248201526e105b1c9958591e4818db185a5b5959608a1b60448201526064016108d0565b600c54336000818152600d60205260409020805460ff191660ff90931692909217909155610d4f9061182c565b6001600860028282829054906101000a900461ffff16610d6f9190612405565b92506101000a81548161ffff021916908361ffff160217905550505050505050565b6006546001600160a01b03163314610dbb5760405162461bcd60e51b81526004016108d090612336565b6040514790339082156108fc029083906000818181858888f19350505050158015610dea573d6000803e3d6000fd5b5050565b610a0683838360405180602001604052806000815250611289565b6006546001600160a01b03163314610e335760405162461bcd60e51b81526004016108d090612336565b610a06600a8383611e28565b6000818152600260205260408120546001600160a01b0316806107c35760405162461bcd60e51b815260206004820152602960248201527f4552433732313a206f776e657220717565727920666f72206e6f6e657869737460448201526832b73a103a37b5b2b760b91b60648201526084016108d0565b60078054610ec39061246b565b80601f0160208091040260200160405190810160405280929190818152602001828054610eef9061246b565b8015610f3c5780601f10610f1157610100808354040283529160200191610f3c565b820191906000526020600020905b815481529060010190602001808311610f1f57829003601f168201915b505050505081565b60006001600160a01b038216610faf5760405162461bcd60e51b815260206004820152602a60248201527f4552433732313a2062616c616e636520717565727920666f7220746865207a65604482015269726f206164647265737360b01b60648201526084016108d0565b506001600160a01b031660009081526003602052604090205490565b6006546001600160a01b03163314610ff55760405162461bcd60e51b81526004016108d090612336565b610fff600061187f565b565b600854600160301b900460ff1661102a5760405162461bcd60e51b81526004016108d09061230a565b600e546040516bffffffffffffffffffffffff193360601b166020820152839083906000906034016040516020818303038152906040528051906020012090506110aa8383808060200260200160405190810160405280939291908181526020018383602002808284376000920191909152508892508591506118699050565b6110e65760405162461bcd60e51b815260206004820152600d60248201526c24b73b30b634b210383937b7b360991b60448201526064016108d0565b336000908152600f602052604090205460ff16156111385760405162461bcd60e51b815260206004820152600f60248201526e105b1c9958591e4818db185a5b5959608a1b60448201526064016108d0565b336000818152600f60205260409020805460ff19166001179055610d4f9061182c565b6006546001600160a01b031633146111855760405162461bcd60e51b81526004016108d090612336565b600955565b6060600180546107d89061246b565b610dea3383836118d1565b6006546001600160a01b031633146111ce5760405162461bcd60e51b81526004016108d090612336565b60088054911515600160381b0267ff0000000000000019909216919091179055565b6006546001600160a01b0316331461121a5760405162461bcd60e51b81526004016108d090612336565b600854600160301b900460ff166112435760405162461bcd60e51b81526004016108d09061230a565b61124c8161182c565b6001600860048282829054906101000a900461ffff1661126c9190612405565b92506101000a81548161ffff021916908361ffff16021790555050565b6112933383611595565b6112af5760405162461bcd60e51b81526004016108d09061236b565b6112bb848484846119a0565b50505050565b6006546001600160a01b031633146112eb5760405162461bcd60e51b81526004016108d090612336565b600b55565b6006546001600160a01b0316331461131a5760405162461bcd60e51b81526004016108d090612336565b600c805460ff191660ff92909216919091179055565b6006546001600160a01b0316331461135a5760405162461bcd60e51b81526004016108d090612336565b60088054911515600160301b0266ff00000000000019909216919091179055565b6000818152600260205260409020546060906001600160a01b03166113fa5760405162461bcd60e51b815260206004820152602f60248201527f4552433732314d657461646174613a2055524920717565727920666f72206e6f60448201526e3732bc34b9ba32b73a103a37b5b2b760891b60648201526084016108d0565b60006114046119d3565b90506000815111611424576040518060200160405280600081525061144f565b8061142e846119e2565b60405160200161143f929190612239565b6040516020818303038152906040525b9392505050565b6006546001600160a01b031633146114805760405162461bcd60e51b81526004016108d090612336565b6001600160a01b0381166114e55760405162461bcd60e51b815260206004820152602660248201527f4f776e61626c653a206e6577206f776e657220697320746865207a65726f206160448201526564647265737360d01b60648201526084016108d0565b6114ee8161187f565b50565b6006546001600160a01b0316331461151b5760405162461bcd60e51b81526004016108d090612336565b610a0660078383611e28565b600081815260046020526040902080546001600160a01b0319166001600160a01b038416908117909155819061155c82610e3f565b6001600160a01b03167f8c5be1e5ebec7d5bd14f71427d1e84f3dd0314c0f7b2291e5b200ac8c7c3b92560405160405180910390a45050565b6000818152600260205260408120546001600160a01b031661160e5760405162461bcd60e51b815260206004820152602c60248201527f4552433732313a206f70657261746f7220717565727920666f72206e6f6e657860448201526b34b9ba32b73a103a37b5b2b760a11b60648201526084016108d0565b600061161983610e3f565b9050806001600160a01b0316846001600160a01b031614806116545750836001600160a01b03166116498461085b565b6001600160a01b0316145b8061168457506001600160a01b0380821660009081526005602090815260408083209388168352929052205460ff165b949350505050565b826001600160a01b031661169f82610e3f565b6001600160a01b0316146117075760405162461bcd60e51b815260206004820152602960248201527f4552433732313a207472616e73666572206f6620746f6b656e2074686174206960448201526839903737ba1037bbb760b91b60648201526084016108d0565b6001600160a01b0382166117695760405162461bcd60e51b8152602060048201526024808201527f4552433732313a207472616e7366657220746f20746865207a65726f206164646044820152637265737360e01b60648201526084016108d0565b611774600082611527565b6001600160a01b038316600090815260036020526040812080546001929061179d908490612428565b90915550506001600160a01b03821660009081526003602052604081208054600192906117cb9084906123d9565b909155505060008181526002602052604080822080546001600160a01b0319166001600160a01b0386811691821790925591518493918716917fddf252ad1be2c89b69c2b068fc378daa952ba7f163c4a11628f55a4df523b3ef91a4505050565b60085461183e90829061ffff16611ae0565b6008546118509061ffff1660016123bc565b6008805461ffff191661ffff9290921691909117905550565b6000826118768584611afa565b14949350505050565b600680546001600160a01b038381166001600160a01b0319831681179093556040519116919082907f8be0079c531659141344cd1fd0a4f28419497f9722a3daafe3b4186f6b6457e090600090a35050565b816001600160a01b0316836001600160a01b031614156119335760405162461bcd60e51b815260206004820152601960248201527f4552433732313a20617070726f766520746f2063616c6c65720000000000000060448201526064016108d0565b6001600160a01b03838116600081815260056020908152604080832094871680845294825291829020805460ff191686151590811790915591519182527f17307eab39ab6107e8899845ad3d59bd9653f200f220920489ca2b5937696c31910160405180910390a3505050565b6119ab84848461168c565b6119b784848484611ba6565b6112bb5760405162461bcd60e51b81526004016108d0906122b8565b6060600a80546107d89061246b565b606081611a065750506040805180820190915260018152600360fc1b602082015290565b8160005b8115611a305780611a1a816124a6565b9150611a299050600a836123f1565b9150611a0a565b60008167ffffffffffffffff811115611a4b57611a4b612517565b6040519080825280601f01601f191660200182016040528015611a75576020820181803683370190505b5090505b841561168457611a8a600183612428565b9150611a97600a866124c1565b611aa29060306123d9565b60f81b818381518110611ab757611ab7612501565b60200101906001600160f81b031916908160001a905350611ad9600a866123f1565b9450611a79565b610dea828260405180602001604052806000815250611cb3565b600081815b8451811015611b9e576000858281518110611b1c57611b1c612501565b60200260200101519050808311611b5e576040805160208101859052908101829052606001604051602081830303815290604052805190602001209250611b8b565b60408051602081018390529081018490526060016040516020818303038152906040528051906020012092505b5080611b96816124a6565b915050611aff565b509392505050565b60006001600160a01b0384163b15611ca857604051630a85bd0160e11b81526001600160a01b0385169063150b7a0290611bea903390899088908890600401612268565b602060405180830381600087803b158015611c0457600080fd5b505af1925050508015611c34575060408051601f3d908101601f19168201909252611c319181019061216d565b60015b611c8e573d808015611c62576040519150601f19603f3d011682016040523d82523d6000602084013e611c67565b606091505b508051611c865760405162461bcd60e51b81526004016108d0906122b8565b805181602001fd5b6001600160e01b031916630a85bd0160e11b149050611684565b506001949350505050565b611cbd8383611ce6565b611cca6000848484611ba6565b610a065760405162461bcd60e51b81526004016108d0906122b8565b6001600160a01b038216611d3c5760405162461bcd60e51b815260206004820181905260248201527f4552433732313a206d696e7420746f20746865207a65726f206164647265737360448201526064016108d0565b6000818152600260205260409020546001600160a01b031615611da15760405162461bcd60e51b815260206004820152601c60248201527f4552433732313a20746f6b656e20616c7265616479206d696e7465640000000060448201526064016108d0565b6001600160a01b0382166000908152600360205260408120805460019290611dca9084906123d9565b909155505060008181526002602052604080822080546001600160a01b0319166001600160a01b03861690811790915590518392907fddf252ad1be2c89b69c2b068fc378daa952ba7f163c4a11628f55a4df523b3ef908290a45050565b828054611e349061246b565b90600052602060002090601f016020900481019282611e565760008555611e9c565b82601f10611e6f5782800160ff19823516178555611e9c565b82800160010185558215611e9c579182015b82811115611e9c578235825591602001919060010190611e81565b50611ea8929150611eac565b5090565b5b80821115611ea85760008155600101611ead565b80356001600160a01b0381168114611ed857600080fd5b919050565b80358015158114611ed857600080fd5b600060208284031215611eff57600080fd5b61144f82611ec1565b60008060408385031215611f1b57600080fd5b611f2483611ec1565b9150611f3260208401611ec1565b90509250929050565b600080600060608486031215611f5057600080fd5b611f5984611ec1565b9250611f6760208501611ec1565b9150604084013590509250925092565b60008060008060808587031215611f8d57600080fd5b611f9685611ec1565b9350611fa460208601611ec1565b925060408501359150606085013567ffffffffffffffff80821115611fc857600080fd5b818701915087601f830112611fdc57600080fd5b813581811115611fee57611fee612517565b604051601f8201601f19908116603f0116810190838211818310171561201657612016612517565b816040528281528a602084870101111561202f57600080fd5b82602086016020830137600060208483010152809550505050505092959194509250565b6000806040838503121561206657600080fd5b61206f83611ec1565b9150611f3260208401611edd565b6000806040838503121561209057600080fd5b61209983611ec1565b946020939093013593505050565b600080602083850312156120ba57600080fd5b823567ffffffffffffffff808211156120d257600080fd5b818501915085601f8301126120e657600080fd5b8135818111156120f557600080fd5b8660208260051b850101111561210a57600080fd5b60209290920196919550909350505050565b60006020828403121561212e57600080fd5b61144f82611edd565b60006020828403121561214957600080fd5b5035919050565b60006020828403121561216257600080fd5b813561144f8161252d565b60006020828403121561217f57600080fd5b815161144f8161252d565b6000806020838503121561219d57600080fd5b823567ffffffffffffffff808211156121b557600080fd5b818501915085601f8301126121c957600080fd5b8135818111156121d857600080fd5b86602082850101111561210a57600080fd5b6000602082840312156121fc57600080fd5b813560ff8116811461144f57600080fd5b6000815180845261222581602086016020860161243f565b601f01601f19169290920160200192915050565b6000835161224b81846020880161243f565b83519083019061225f81836020880161243f565b01949350505050565b6001600160a01b038581168252841660208201526040810183905260806060820181905260009061229b9083018461220d565b9695505050505050565b60208152600061144f602083018461220d565b60208082526032908201527f4552433732313a207472616e7366657220746f206e6f6e20455243373231526560408201527131b2b4bb32b91034b6b83632b6b2b73a32b960711b606082015260800190565b60208082526012908201527153616c65206973206e6f742061637469766560701b604082015260600190565b6020808252818101527f4f776e61626c653a2063616c6c6572206973206e6f7420746865206f776e6572604082015260600190565b60208082526031908201527f4552433732313a207472616e736665722063616c6c6572206973206e6f74206f6040820152701ddb995c881b9bdc88185c1c1c9bdd9959607a1b606082015260800190565b600061ffff80831681851680830382111561225f5761225f6124d5565b600082198211156123ec576123ec6124d5565b500190565b600082612400576124006124eb565b500490565b600061ffff83811690831681811015612420576124206124d5565b039392505050565b60008282101561243a5761243a6124d5565b500390565b60005b8381101561245a578181015183820152602001612442565b838111156112bb5750506000910152565b600181811c9082168061247f57607f821691505b602082108114156124a057634e487b7160e01b600052602260045260246000fd5b50919050565b60006000198214156124ba576124ba6124d5565b5060010190565b6000826124d0576124d06124eb565b500690565b634e487b7160e01b600052601160045260246000fd5b634e487b7160e01b600052601260045260246000fd5b634e487b7160e01b600052603260045260246000fd5b634e487b7160e01b600052604160045260246000fd5b6001600160e01b0319811681146114ee57600080fdfea264697066735822122074960c27d96a0048ad5943b2538ebe18b0f4bb29d897a99385cb9f90617ce8f564736f6c63430008060033",
  "immutableReferences": {},
  "source": "// SPDX-License-Identifier: MIT\r\n//..........................................................................................................\r\n//.BBBBBBBBBBBBBBBB......LLLLLL..................AAAAAAAA........NNNNNN.......NNNNNN...KKKKK.......KKKKKKK..\r\n//.BBBBBBBBBBBBBBBBBB....LLLLLL..................AAAAAAAA........NNNNNNN......NNNNNN...KKKKK......KKKKKKKK..\r\n//.BBBBBBBBBBBBBBBBBB....LLLLLL.................AAAAAAAAA........NNNNNNNN.....NNNNNN...KKKKK.....KKKKKKKK...\r\n//.BBBBBBBBBBBBBBBBBBB...LLLLLL.................AAAAAAAAAA.......NNNNNNNN.....NNNNNN...KKKKK....KKKKKKKK....\r\n//.BBBBBB.....BBBBBBBB...LLLLLL.................AAAAAAAAAA.......NNNNNNNNN....NNNNNN...KKKKK...KKKKKKKK.....\r\n//.BBBBBB.......BBBBBB...LLLLLL................AAAAAAAAAAA.......NNNNNNNNN....NNNNNN...KKKKK..KKKKKKKK......\r\n//.BBBBBB.......BBBBBB...LLLLLL................AAAAAAAAAAAA......NNNNNNNNNN...NNNNNN...KKKKK..KKKKKKK.......\r\n//.BBBBBB.......BBBBBB...LLLLLL...............AAAAAA.AAAAAA......NNNNNNNNNNN..NNNNNN...KKKKK.KKKKKKK........\r\n//.BBBBBB.....BBBBBBBB...LLLLLL...............AAAAAA.AAAAAA......NNNNNNNNNNN..NNNNNN...KKKKKKKKKKKK.........\r\n//.BBBBBBBBBBBBBBBBBB....LLLLLL...............AAAAAA..AAAAAA.....NNNNNNNNNNNN.NNNNNN...KKKKKKKKKKKKK........\r\n//.BBBBBBBBBBBBBBBBB.....LLLLLL..............AAAAAA...AAAAAA.....NNNNNNNNNNNN.NNNNNN...KKKKKKKKKKKKKK.......\r\n//.BBBBBBBBBBBBBBBBBB....LLLLLL..............AAAAAA...AAAAAAA....NNNNNNNNNNNNNNNNNNN...KKKKKKKKKKKKKK.......\r\n//.BBBBBBBBBBBBBBBBBBB...LLLLLL..............AAAAAA....AAAAAA....NNNNNN.NNNNNNNNNNNN...KKKKKKKKKKKKKKK......\r\n//.BBBBBB.....BBBBBBBBB..LLLLLL.............AAAAAAAAAAAAAAAAA....NNNNNN..NNNNNNNNNNN...KKKKKKK.KKKKKKKK.....\r\n//.BBBBBB........BBBBBB..LLLLLL.............AAAAAAAAAAAAAAAAAA...NNNNNN..NNNNNNNNNNN...KKKKKK...KKKKKKK.....\r\n//.BBBBBB........BBBBBB..LLLLLL.............AAAAAAAAAAAAAAAAAA...NNNNNN...NNNNNNNNNN...KKKKK.....KKKKKKK....\r\n//.BBBBBB........BBBBBB..LLLLLL............AAAAAAAAAAAAAAAAAAA...NNNNNN...NNNNNNNNNN...KKKKK.....KKKKKKK....\r\n//.BBBBBB......BBBBBBBB..LLLLLL............AAAAAA.......AAAAAAA..NNNNNN....NNNNNNNNN...KKKKK......KKKKKKK...\r\n//.BBBBBBBBBBBBBBBBBBBB..LLLLLLLLLLLLLLLLLLAAAAA.........AAAAAA..NNNNNN.....NNNNNNNN...KKKKK......KKKKKKKK..\r\n//.BBBBBBBBBBBBBBBBBBB...LLLLLLLLLLLLLLLLLLAAAAA.........AAAAAA..NNNNNN.....NNNNNNNN...KKKKK.......KKKKKKK..\r\n//.BBBBBBBBBBBBBBBBBB....LLLLLLLLLLLLLLLLLLAAAAA.........AAAAAAA.NNNNNN......NNNNNNN...KKKKK........KKKKKK..\r\n//.BBBBBBBBBBBBBBBBB.....LLLLLLLLLLLLLLLLLLAAAA...........AAAAAA.NNNNNN......NNNNNNN...KKKKK........KKKKKK..\r\n//..........................................................................................................\r\n\r\npragma solidity ^0.8.6;\r\nimport \"@openzeppelin/contracts/token/ERC721/ERC721.sol\";\r\nimport \"@openzeppelin/contracts/access/Ownable.sol\";\r\nimport \"@openzeppelin/contracts/utils/cryptography/MerkleProof.sol\";\r\n\r\ncontract Initializers is ERC721,Ownable {\r\n\r\n  string public PROVENANCE = \"\"; // Stores a hash identifying the order of the metadata/artwork\r\n\r\n  uint16 private nextTokenId = 0; // Incremented upon the creation of each token\r\n\r\n  uint16 public publicSupplyAvailable = 868; // 868 available to general public\r\n  uint16 public reserveSupplyAvailable = 101; // 101 reserved in treasury\r\n  bool public saleIsActive = true; // Can tokens be purchased?\r\n  bool public openToPublic = false; // Are sales open to the public, or only those whitelisted?\r\n  uint256 public price = 55000000000000000; //0.055 ETH\r\n\r\n  // The baseURI token IDs are concatenated to when accessing metadata\r\n  string private baseURIextended = \"\";\r\n\r\n  // The root hash of the Merkle Tree used for our whitelist\r\n  bytes32 public whitelistMerkleRoot;\r\n  // Mapping variable to mark whitelist addresses as having claimed\r\n  // Allows for tracking mints in multiple whitelist phases\r\n  // ie. whitelistClaimed[walletAddress] = whitelistPhase\r\n  uint8 private whitelistPhase = 1;\r\n  mapping(address => uint8) public whitelistPhaseClaimed;\r\n\r\n  // The root hash of the Merkle Tree used for our freelist\r\n  bytes32 public freelistMerkleRoot;\r\n  // Mapping variable to mark freelist addresses as having claimed\r\n  mapping(address => bool) public freelistClaimed;\r\n\r\n  constructor() ERC721(\"Initializers\", \"INIT\") {}\r\n\r\n  /**\r\n   * @dev Internal token minting function called from all other mint functions\r\n   */\r\n  function mintToken(address to) internal {\r\n    _safeMint(to, nextTokenId);\r\n    nextTokenId = nextTokenId+1;\r\n  }\r\n\r\n  /**\r\n   * @dev Allows the contract owner to mint from the reserve\r\n   */\r\n  function reserveMint(address to)\r\n    public\r\n    onlyOwner\r\n    onlyDuringActiveSale\r\n  {\r\n    mintToken(to);\r\n    reserveSupplyAvailable -= 1; // reverts transaction if supply falls below 0\r\n  }\r\n\r\n  /**\r\n   * @dev Allows those on the whitelist to mint for a set price\r\n   */\r\n  function whitelistMint(bytes32[] calldata merkleProof)\r\n    public\r\n    payable\r\n    priced\r\n    onlyDuringActiveSale\r\n    onlyWithValidProof(whitelistMerkleRoot, merkleProof)\r\n  {\r\n    require(whitelistPhaseClaimed[msg.sender] < whitelistPhase, \"Already claimed\");\r\n    whitelistPhaseClaimed[msg.sender] = whitelistPhase;\r\n\r\n    mintToken(msg.sender);\r\n    publicSupplyAvailable -= 1; // Reverts transaction if supply falls below 0\r\n  }\r\n\r\n  /**\r\n   * @dev Allows those on the freelist to mint for free\r\n   */\r\n  function freeMint(bytes32[] calldata merkleProof)\r\n    public\r\n    onlyDuringActiveSale\r\n    onlyWithValidProof(freelistMerkleRoot, merkleProof)\r\n  {\r\n    require(!freelistClaimed[msg.sender], \"Already claimed\");\r\n    freelistClaimed[msg.sender]= true;\r\n\r\n    mintToken(msg.sender);\r\n    publicSupplyAvailable -= 1; // Reverts transaction if supply falls below 0\r\n  }\r\n\r\n  /**\r\n   * @dev Allows anyone to mint if public sale is active\r\n   */\r\n  function publicMint()\r\n    public\r\n    payable\r\n    priced\r\n    onlyDuringActiveSale\r\n    onlyDuringPublicSale\r\n  {\r\n    mintToken(msg.sender);\r\n    publicSupplyAvailable -= 1; // Reverts transaction if supply falls below 0\r\n  }\r\n\r\n  // Getter functions\r\n  function totalSupply() public view returns (uint256) {\r\n    return nextTokenId + reserveSupplyAvailable; // Consider reserve tokens always in existence\r\n  }\r\n\r\n  // PROVENANCE\r\n  // When the final public mint function call is executed and totalSupply() == 969,\r\n  // (meaning all Initializers are allocated), then:\r\n  //    - The ordering of the \"initial sequence\" of Initializer art/metadata\r\n  //      (verifiable via the hash stored in PROVENANCE) will be offset by\r\n  //      the transaction's blockNumber % 969. This is handled off-chain.\r\n  //    - setBaseURI() will be called, pointing to the corresponding shifted\r\n  //      metadata/art\r\n  //    - Token metadata/art is revealed\r\n\r\n  // Owner functions\r\n  function withdraw() public onlyOwner {\r\n    uint balance = address(this).balance;\r\n    payable(msg.sender).transfer(balance);\r\n  }\r\n\r\n  function setProvenance(string calldata provenance) public onlyOwner {\r\n    PROVENANCE = provenance;\r\n  }\r\n\r\n  function setSaleState(bool saleState) public onlyOwner {\r\n    saleIsActive = saleState;\r\n  }\r\n\r\n  function setPrice(uint256 _price) public onlyOwner {\r\n    price = _price;\r\n  }\r\n\r\n  function setOpenToPublic(bool isOpen) public onlyOwner {\r\n    openToPublic = isOpen;\r\n  }\r\n\r\n  function setFreelistMerkleRoot(bytes32 merkleRoot) public onlyOwner {\r\n    freelistMerkleRoot = merkleRoot;\r\n  }\r\n\r\n  function setWhitelistMerkleRoot(bytes32 merkleRoot) public onlyOwner {\r\n    whitelistMerkleRoot = merkleRoot;\r\n  }\r\n\r\n  function setWhitelistPhase(uint8 _whitelistPhase) public onlyOwner {\r\n    whitelistPhase = _whitelistPhase;\r\n  }\r\n\r\n  // URI functions\r\n  function setBaseURI(string calldata baseURI) external onlyOwner {\r\n      baseURIextended = baseURI;\r\n  }\r\n\r\n  function _baseURI() internal view virtual override returns (string memory) {\r\n      return baseURIextended;\r\n  }\r\n\r\n  // Modifiers\r\n  modifier onlyDuringActiveSale() {\r\n    require(saleIsActive, \"Sale is not active\");\r\n      _;\r\n  }\r\n\r\n  modifier onlyDuringPublicSale() {\r\n    require(openToPublic, \"Public sale closed\");\r\n      _;\r\n  }\r\n\r\n  /**\r\n   * @dev Requires a provided merkle proof to be verified for the modified function to execute\r\n   */\r\n  modifier onlyWithValidProof(bytes32 root, bytes32[] calldata merkleProof) {\r\n    // Verify the provided proof\r\n    bytes32 leaf = keccak256(abi.encodePacked(msg.sender));\r\n    require(MerkleProof.verify(merkleProof, root, leaf), \"Invalid proof\");\r\n      _;\r\n  }\r\n\r\n  modifier priced() {\r\n    require(msg.value >= price, \"Invalid payment amount\");\r\n      _;\r\n  }\r\n}\r\n",
  "sourcePath": "C:\\Users\\Kris\\Documents\\git-projects\\blank-humanity\\blank-humanity\\contracts\\Initializers.sol",
  "compiler": {
    "name": "solc",
    "version": "0.8.6+commit.11564f7e.Emscripten.clang"
  },
  "schemaVersion": "3.4.4",
  "updatedAt": "2022-01-18T04:47:15.630Z",
  "devdoc": {
    "kind": "dev",
    "methods": {
      "approve(address,uint256)": {
        "details": "See {IERC721-approve}."
      },
      "balanceOf(address)": {
        "details": "See {IERC721-balanceOf}."
      },
      "freeMint(bytes32[])": {
        "details": "Allows those on the freelist to mint for free"
      },
      "getApproved(uint256)": {
        "details": "See {IERC721-getApproved}."
      },
      "isApprovedForAll(address,address)": {
        "details": "See {IERC721-isApprovedForAll}."
      },
      "name()": {
        "details": "See {IERC721Metadata-name}."
      },
      "owner()": {
        "details": "Returns the address of the current owner."
      },
      "ownerOf(uint256)": {
        "details": "See {IERC721-ownerOf}."
      },
      "publicMint()": {
        "details": "Allows anyone to mint if public sale is active"
      },
      "renounceOwnership()": {
        "details": "Leaves the contract without owner. It will not be possible to call `onlyOwner` functions anymore. Can only be called by the current owner. NOTE: Renouncing ownership will leave the contract without an owner, thereby removing any functionality that is only available to the owner."
      },
      "reserveMint(address)": {
        "details": "Allows the contract owner to mint from the reserve"
      },
      "safeTransferFrom(address,address,uint256)": {
        "details": "See {IERC721-safeTransferFrom}."
      },
      "safeTransferFrom(address,address,uint256,bytes)": {
        "details": "See {IERC721-safeTransferFrom}."
      },
      "setApprovalForAll(address,bool)": {
        "details": "See {IERC721-setApprovalForAll}."
      },
      "supportsInterface(bytes4)": {
        "details": "See {IERC165-supportsInterface}."
      },
      "symbol()": {
        "details": "See {IERC721Metadata-symbol}."
      },
      "tokenURI(uint256)": {
        "details": "See {IERC721Metadata-tokenURI}."
      },
      "transferFrom(address,address,uint256)": {
        "details": "See {IERC721-transferFrom}."
      },
      "transferOwnership(address)": {
        "details": "Transfers ownership of the contract to a new account (`newOwner`). Can only be called by the current owner."
      },
      "whitelistMint(bytes32[])": {
        "details": "Allows those on the whitelist to mint for a set price"
      }
    },
    "version": 1
  },
  "userdoc": {
    "kind": "user",
    "methods": {},
    "version": 1
  }
}